{
	"Fund/FundMe.sol": {
		"FundMe": {
			"abi": [
				{
					"inputs": [],
					"stateMutability": "nonpayable",
					"type": "constructor"
				},
				{
					"inputs": [],
					"name": "fund",
					"outputs": [],
					"stateMutability": "payable",
					"type": "function"
				},
				{
					"inputs": [
						{
							"internalType": "address",
							"name": "",
							"type": "address"
						}
					],
					"name": "fundersToAmount",
					"outputs": [
						{
							"internalType": "uint256",
							"name": "",
							"type": "uint256"
						}
					],
					"stateMutability": "view",
					"type": "function"
				},
				{
					"inputs": [],
					"name": "getChainlinkDataFeedLatestAnswer",
					"outputs": [
						{
							"internalType": "int256",
							"name": "",
							"type": "int256"
						}
					],
					"stateMutability": "view",
					"type": "function"
				},
				{
					"inputs": [],
					"name": "getFund",
					"outputs": [],
					"stateMutability": "nonpayable",
					"type": "function"
				},
				{
					"inputs": [],
					"name": "owner",
					"outputs": [
						{
							"internalType": "address",
							"name": "",
							"type": "address"
						}
					],
					"stateMutability": "view",
					"type": "function"
				},
				{
					"inputs": [
						{
							"internalType": "address",
							"name": "newOwner",
							"type": "address"
						}
					],
					"name": "transferOwnership",
					"outputs": [],
					"stateMutability": "nonpayable",
					"type": "function"
				}
			],
			"devdoc": {
				"kind": "dev",
				"methods": {},
				"version": 1
			},
			"evm": {
				"assembly": "    /* \"Fund/FundMe.sol\":376:2628  contract FundMe {... */\n  mstore(0x40, 0x80)\n    /* \"Fund/FundMe.sol\":638:800  constructor() {... */\n  callvalue\n  dup1\n  iszero\n  tag_1\n  jumpi\n  0x00\n  dup1\n  revert\ntag_1:\n  pop\n    /* \"Fund/FundMe.sol\":722:764  0x694AA1769357215DE4FAC081bf1f309aDC325306 */\n  0x694aa1769357215de4fac081bf1f309adc325306\n    /* \"Fund/FundMe.sol\":689:697  dataFeed */\n  0x01\n  0x00\n    /* \"Fund/FundMe.sol\":689:765  dataFeed = AggregatorV3Interface(0x694AA1769357215DE4FAC081bf1f309aDC325306) */\n  0x0100\n  exp\n  dup2\n  sload\n  dup2\n  0xffffffffffffffffffffffffffffffffffffffff\n  mul\n  not\n  and\n  swap1\n  dup4\n  0xffffffffffffffffffffffffffffffffffffffff\n  and\n  mul\n  or\n  swap1\n  sstore\n  pop\n    /* \"Fund/FundMe.sol\":783:793  msg.sender */\n  caller\n    /* \"Fund/FundMe.sol\":775:780  owner */\n  0x02\n  0x00\n    /* \"Fund/FundMe.sol\":775:793  owner = msg.sender */\n  0x0100\n  exp\n  dup2\n  sload\n  dup2\n  0xffffffffffffffffffffffffffffffffffffffff\n  mul\n  not\n  and\n  swap1\n  dup4\n  0xffffffffffffffffffffffffffffffffffffffff\n  and\n  mul\n  or\n  swap1\n  sstore\n  pop\n    /* \"Fund/FundMe.sol\":376:2628  contract FundMe {... */\n  dataSize(sub_0)\n  dup1\n  dataOffset(sub_0)\n  0x00\n  codecopy\n  0x00\n  return\nstop\n\nsub_0: assembly {\n        /* \"Fund/FundMe.sol\":376:2628  contract FundMe {... */\n      mstore(0x40, 0x80)\n      jumpi(tag_1, lt(calldatasize, 0x04))\n      shr(0xe0, calldataload(0x00))\n      dup1\n      0x8da5cb5b\n      eq\n      tag_2\n      jumpi\n      dup1\n      0x8edd6eb6\n      eq\n      tag_3\n      jumpi\n      dup1\n      0x9f883a05\n      eq\n      tag_4\n      jumpi\n      dup1\n      0xb60d4288\n      eq\n      tag_5\n      jumpi\n      dup1\n      0xbea4dfb5\n      eq\n      tag_6\n      jumpi\n      dup1\n      0xf2fde38b\n      eq\n      tag_7\n      jumpi\n    tag_1:\n      0x00\n      dup1\n      revert\n        /* \"Fund/FundMe.sol\":611:631  address public owner */\n    tag_2:\n      callvalue\n      dup1\n      iszero\n      tag_8\n      jumpi\n      0x00\n      dup1\n      revert\n    tag_8:\n      pop\n      tag_9\n      tag_10\n      jump\t// in\n    tag_9:\n      mload(0x40)\n      tag_11\n      swap2\n      swap1\n      tag_12\n      jump\t// in\n    tag_11:\n      mload(0x40)\n      dup1\n      swap2\n      sub\n      swap1\n      return\n        /* \"Fund/FundMe.sol\":1711:2625  function getFund() external {... */\n    tag_3:\n      callvalue\n      dup1\n      iszero\n      tag_13\n      jumpi\n      0x00\n      dup1\n      revert\n    tag_13:\n      pop\n      tag_14\n      tag_15\n      jump\t// in\n    tag_14:\n      stop\n        /* \"Fund/FundMe.sol\":398:448  mapping(address => uint256) public fundersToAmount */\n    tag_4:\n      callvalue\n      dup1\n      iszero\n      tag_16\n      jumpi\n      0x00\n      dup1\n      revert\n    tag_16:\n      pop\n      tag_17\n      0x04\n      dup1\n      calldatasize\n      sub\n      dup2\n      add\n      swap1\n      tag_18\n      swap2\n      swap1\n      tag_19\n      jump\t// in\n    tag_18:\n      tag_20\n      jump\t// in\n    tag_17:\n      mload(0x40)\n      tag_21\n      swap2\n      swap1\n      tag_22\n      jump\t// in\n    tag_21:\n      mload(0x40)\n      dup1\n      swap2\n      sub\n      swap1\n      return\n        /* \"Fund/FundMe.sol\":806:974  function fund() external payable {... */\n    tag_5:\n      tag_23\n      tag_24\n      jump\t// in\n    tag_23:\n      stop\n        /* \"Fund/FundMe.sol\":980:1318  function getChainlinkDataFeedLatestAnswer() public view returns (int) {... */\n    tag_6:\n      callvalue\n      dup1\n      iszero\n      tag_25\n      jumpi\n      0x00\n      dup1\n      revert\n    tag_25:\n      pop\n      tag_26\n      tag_27\n      jump\t// in\n    tag_26:\n      mload(0x40)\n      tag_28\n      swap2\n      swap1\n      tag_29\n      jump\t// in\n    tag_28:\n      mload(0x40)\n      dup1\n      swap2\n      sub\n      swap1\n      return\n        /* \"Fund/FundMe.sol\":1532:1705  function transferOwnership(address newOwner) public{... */\n    tag_7:\n      callvalue\n      dup1\n      iszero\n      tag_30\n      jumpi\n      0x00\n      dup1\n      revert\n    tag_30:\n      pop\n      tag_31\n      0x04\n      dup1\n      calldatasize\n      sub\n      dup2\n      add\n      swap1\n      tag_32\n      swap2\n      swap1\n      tag_19\n      jump\t// in\n    tag_32:\n      tag_33\n      jump\t// in\n    tag_31:\n      stop\n        /* \"Fund/FundMe.sol\":611:631  address public owner */\n    tag_10:\n      0x02\n      0x00\n      swap1\n      sload\n      swap1\n      0x0100\n      exp\n      swap1\n      div\n      0xffffffffffffffffffffffffffffffffffffffff\n      and\n      dup2\n      jump\t// out\n        /* \"Fund/FundMe.sol\":1711:2625  function getFund() external {... */\n    tag_15:\n        /* \"Fund/FundMe.sol\":590:604  100 * 10 ** 18 */\n      0x056bc75e2d63100000\n        /* \"Fund/FundMe.sol\":1757:1795  convertEthToUsd(address(this).balance) */\n      tag_35\n        /* \"Fund/FundMe.sol\":1773:1794  address(this).balance */\n      selfbalance\n        /* \"Fund/FundMe.sol\":1757:1772  convertEthToUsd */\n      tag_36\n        /* \"Fund/FundMe.sol\":1757:1795  convertEthToUsd(address(this).balance) */\n      jump\t// in\n    tag_35:\n        /* \"Fund/FundMe.sol\":1757:1805  convertEthToUsd(address(this).balance) >= TARGET */\n      lt\n      iszero\n        /* \"Fund/FundMe.sol\":1749:1831  require(convertEthToUsd(address(this).balance) >= TARGET, \"Target is not reached\") */\n      tag_37\n      jumpi\n      mload(0x40)\n      0x08c379a000000000000000000000000000000000000000000000000000000000\n      dup2\n      mstore\n      0x04\n      add\n      tag_38\n      swap1\n      tag_39\n      jump\t// in\n    tag_38:\n      mload(0x40)\n      dup1\n      swap2\n      sub\n      swap1\n      revert\n    tag_37:\n        /* \"Fund/FundMe.sol\":2145:2157  bool success */\n      0x00\n        /* \"Fund/FundMe.sol\":2189:2199  msg.sender */\n      caller\n        /* \"Fund/FundMe.sol\":2181:2205  payable(msg.sender).call */\n      0xffffffffffffffffffffffffffffffffffffffff\n      and\n        /* \"Fund/FundMe.sol\":2213:2234  address(this).balance */\n      selfbalance\n        /* \"Fund/FundMe.sol\":2181:2239  payable(msg.sender).call{value: address(this).balance}(\"\") */\n      mload(0x40)\n      tag_40\n      swap1\n      tag_41\n      jump\t// in\n    tag_40:\n      0x00\n      mload(0x40)\n      dup1\n      dup4\n      sub\n      dup2\n      dup6\n      dup8\n      gas\n      call\n      swap3\n      pop\n      pop\n      pop\n      returndatasize\n      dup1\n      0x00\n      dup2\n      eq\n      tag_44\n      jumpi\n      mload(0x40)\n      swap2\n      pop\n      and(add(returndatasize, 0x3f), not(0x1f))\n      dup3\n      add\n      0x40\n      mstore\n      returndatasize\n      dup3\n      mstore\n      returndatasize\n      0x00\n      0x20\n      dup5\n      add\n      returndatacopy\n      jump(tag_43)\n    tag_44:\n      0x60\n      swap2\n      pop\n    tag_43:\n      pop\n        /* \"Fund/FundMe.sol\":2167:2239  (success, ) = payable(msg.sender).call{value: address(this).balance}(\"\") */\n      pop\n      dup1\n      swap2\n      pop\n      pop\n        /* \"Fund/FundMe.sol\":2257:2264  success */\n      dup1\n        /* \"Fund/FundMe.sol\":2249:2287  require(success, \"transfer tx failed\") */\n      tag_45\n      jumpi\n      mload(0x40)\n      0x08c379a000000000000000000000000000000000000000000000000000000000\n      dup2\n      mstore\n      0x04\n      add\n      tag_46\n      swap1\n      tag_47\n      jump\t// in\n    tag_46:\n      mload(0x40)\n      dup1\n      swap2\n      sub\n      swap1\n      revert\n    tag_45:\n        /* \"Fund/FundMe.sol\":1739:2625  {... */\n      pop\n        /* \"Fund/FundMe.sol\":1711:2625  function getFund() external {... */\n      jump\t// out\n        /* \"Fund/FundMe.sol\":398:448  mapping(address => uint256) public fundersToAmount */\n    tag_20:\n      mstore(0x20, 0x00)\n      dup1\n      0x00\n      mstore\n      keccak256(0x00, 0x40)\n      0x00\n      swap2\n      pop\n      swap1\n      pop\n      sload\n      dup2\n      jump\t// out\n        /* \"Fund/FundMe.sol\":806:974  function fund() external payable {... */\n    tag_24:\n        /* \"Fund/FundMe.sol\":488:501  10 * 10 ** 18 */\n      0x8ac7230489e80000\n        /* \"Fund/FundMe.sol\":857:883  convertEthToUsd(msg.value) */\n      tag_49\n        /* \"Fund/FundMe.sol\":873:882  msg.value */\n      callvalue\n        /* \"Fund/FundMe.sol\":857:872  convertEthToUsd */\n      tag_36\n        /* \"Fund/FundMe.sol\":857:883  convertEthToUsd(msg.value) */\n      jump\t// in\n    tag_49:\n        /* \"Fund/FundMe.sol\":857:900  convertEthToUsd(msg.value) >= MINIMUM_VALUE */\n      lt\n      iszero\n        /* \"Fund/FundMe.sol\":849:918  require(convertEthToUsd(msg.value) >= MINIMUM_VALUE, \"Send more ETH\") */\n      tag_50\n      jumpi\n      mload(0x40)\n      0x08c379a000000000000000000000000000000000000000000000000000000000\n      dup2\n      mstore\n      0x04\n      add\n      tag_51\n      swap1\n      tag_52\n      jump\t// in\n    tag_51:\n      mload(0x40)\n      dup1\n      swap2\n      sub\n      swap1\n      revert\n    tag_50:\n        /* \"Fund/FundMe.sol\":958:967  msg.value */\n      callvalue\n        /* \"Fund/FundMe.sol\":928:943  fundersToAmount */\n      0x00\n        /* \"Fund/FundMe.sol\":928:955  fundersToAmount[msg.sender] */\n      dup1\n        /* \"Fund/FundMe.sol\":944:954  msg.sender */\n      caller\n        /* \"Fund/FundMe.sol\":928:955  fundersToAmount[msg.sender] */\n      0xffffffffffffffffffffffffffffffffffffffff\n      and\n      0xffffffffffffffffffffffffffffffffffffffff\n      and\n      dup2\n      mstore\n      0x20\n      add\n      swap1\n      dup2\n      mstore\n      0x20\n      add\n      0x00\n      keccak256\n        /* \"Fund/FundMe.sol\":928:967  fundersToAmount[msg.sender] = msg.value */\n      dup2\n      swap1\n      sstore\n      pop\n        /* \"Fund/FundMe.sol\":806:974  function fund() external payable {... */\n      jump\t// out\n        /* \"Fund/FundMe.sol\":980:1318  function getChainlinkDataFeedLatestAnswer() public view returns (int) {... */\n    tag_27:\n        /* \"Fund/FundMe.sol\":1045:1048  int */\n      0x00\n        /* \"Fund/FundMe.sol\":1135:1145  int answer */\n      dup1\n        /* \"Fund/FundMe.sol\":1262:1270  dataFeed */\n      0x01\n      0x00\n      swap1\n      sload\n      swap1\n      0x0100\n      exp\n      swap1\n      div\n      0xffffffffffffffffffffffffffffffffffffffff\n      and\n        /* \"Fund/FundMe.sol\":1262:1286  dataFeed.latestRoundData */\n      0xffffffffffffffffffffffffffffffffffffffff\n      and\n      0xfeaf968c\n        /* \"Fund/FundMe.sol\":1262:1288  dataFeed.latestRoundData() */\n      mload(0x40)\n      dup2\n      0xffffffff\n      and\n      0xe0\n      shl\n      dup2\n      mstore\n      0x04\n      add\n      0xa0\n      mload(0x40)\n      dup1\n      dup4\n      sub\n      dup2\n      dup7\n      gas\n      staticcall\n      iszero\n      dup1\n      iszero\n      tag_55\n      jumpi\n      returndatasize\n      0x00\n      dup1\n      returndatacopy\n      revert(0x00, returndatasize)\n    tag_55:\n      pop\n      pop\n      pop\n      pop\n      mload(0x40)\n      returndatasize\n      not(0x1f)\n      0x1f\n      dup3\n      add\n      and\n      dup3\n      add\n      dup1\n      0x40\n      mstore\n      pop\n      dup2\n      add\n      swap1\n      tag_56\n      swap2\n      swap1\n      tag_57\n      jump\t// in\n    tag_56:\n        /* \"Fund/FundMe.sol\":1087:1288  (... */\n      pop\n      pop\n      pop\n      swap2\n      pop\n      pop\n        /* \"Fund/FundMe.sol\":1305:1311  answer */\n      dup1\n        /* \"Fund/FundMe.sol\":1298:1311  return answer */\n      swap2\n      pop\n      pop\n        /* \"Fund/FundMe.sol\":980:1318  function getChainlinkDataFeedLatestAnswer() public view returns (int) {... */\n      swap1\n      jump\t// out\n        /* \"Fund/FundMe.sol\":1532:1705  function transferOwnership(address newOwner) public{... */\n    tag_33:\n        /* \"Fund/FundMe.sol\":1615:1620  owner */\n      0x02\n      0x00\n      swap1\n      sload\n      swap1\n      0x0100\n      exp\n      swap1\n      div\n      0xffffffffffffffffffffffffffffffffffffffff\n      and\n        /* \"Fund/FundMe.sol\":1601:1620  msg.sender == owner */\n      0xffffffffffffffffffffffffffffffffffffffff\n      and\n        /* \"Fund/FundMe.sol\":1601:1611  msg.sender */\n      caller\n        /* \"Fund/FundMe.sol\":1601:1620  msg.sender == owner */\n      0xffffffffffffffffffffffffffffffffffffffff\n      and\n      eq\n        /* \"Fund/FundMe.sol\":1593:1672  require(msg.sender == owner, \"you do not have permission to call this funtion\") */\n      tag_59\n      jumpi\n      mload(0x40)\n      0x08c379a000000000000000000000000000000000000000000000000000000000\n      dup2\n      mstore\n      0x04\n      add\n      tag_60\n      swap1\n      tag_61\n      jump\t// in\n    tag_60:\n      mload(0x40)\n      dup1\n      swap2\n      sub\n      swap1\n      revert\n    tag_59:\n        /* \"Fund/FundMe.sol\":1690:1698  newOwner */\n      dup1\n        /* \"Fund/FundMe.sol\":1682:1687  owner */\n      0x02\n      0x00\n        /* \"Fund/FundMe.sol\":1682:1698  owner = newOwner */\n      0x0100\n      exp\n      dup2\n      sload\n      dup2\n      0xffffffffffffffffffffffffffffffffffffffff\n      mul\n      not\n      and\n      swap1\n      dup4\n      0xffffffffffffffffffffffffffffffffffffffff\n      and\n      mul\n      or\n      swap1\n      sstore\n      pop\n        /* \"Fund/FundMe.sol\":1532:1705  function transferOwnership(address newOwner) public{... */\n      pop\n      jump\t// out\n        /* \"Fund/FundMe.sol\":1324:1526  function convertEthToUsd(uint256 ethAmount) internal view returns(uint256){... */\n    tag_36:\n        /* \"Fund/FundMe.sol\":1390:1397  uint256 */\n      0x00\n        /* \"Fund/FundMe.sol\":1408:1424  uint256 ethPrice */\n      dup1\n        /* \"Fund/FundMe.sol\":1435:1469  getChainlinkDataFeedLatestAnswer() */\n      tag_63\n        /* \"Fund/FundMe.sol\":1435:1467  getChainlinkDataFeedLatestAnswer */\n      tag_27\n        /* \"Fund/FundMe.sol\":1435:1469  getChainlinkDataFeedLatestAnswer() */\n      jump\t// in\n    tag_63:\n        /* \"Fund/FundMe.sol\":1408:1470  uint256 ethPrice = uint256(getChainlinkDataFeedLatestAnswer()) */\n      swap1\n      pop\n        /* \"Fund/FundMe.sol\":1511:1518  10 ** 8 */\n      0x05f5e100\n        /* \"Fund/FundMe.sol\":1499:1507  ethPrice */\n      dup2\n        /* \"Fund/FundMe.sol\":1487:1496  ethAmount */\n      dup5\n        /* \"Fund/FundMe.sol\":1487:1507  ethAmount * ethPrice */\n      tag_64\n      swap2\n      swap1\n      tag_65\n      jump\t// in\n    tag_64:\n        /* \"Fund/FundMe.sol\":1487:1519  ethAmount * ethPrice / (10 ** 8) */\n      tag_66\n      swap2\n      swap1\n      tag_67\n      jump\t// in\n    tag_66:\n        /* \"Fund/FundMe.sol\":1480:1519  return ethAmount * ethPrice / (10 ** 8) */\n      swap2\n      pop\n      pop\n        /* \"Fund/FundMe.sol\":1324:1526  function convertEthToUsd(uint256 ethAmount) internal view returns(uint256){... */\n      swap2\n      swap1\n      pop\n      jump\t// out\n        /* \"#utility.yul\":7:133   */\n    tag_68:\n        /* \"#utility.yul\":44:51   */\n      0x00\n        /* \"#utility.yul\":84:126   */\n      0xffffffffffffffffffffffffffffffffffffffff\n        /* \"#utility.yul\":77:82   */\n      dup3\n        /* \"#utility.yul\":73:127   */\n      and\n        /* \"#utility.yul\":62:127   */\n      swap1\n      pop\n        /* \"#utility.yul\":7:133   */\n      swap2\n      swap1\n      pop\n      jump\t// out\n        /* \"#utility.yul\":139:235   */\n    tag_69:\n        /* \"#utility.yul\":176:183   */\n      0x00\n        /* \"#utility.yul\":205:229   */\n      tag_104\n        /* \"#utility.yul\":223:228   */\n      dup3\n        /* \"#utility.yul\":205:229   */\n      tag_68\n      jump\t// in\n    tag_104:\n        /* \"#utility.yul\":194:229   */\n      swap1\n      pop\n        /* \"#utility.yul\":139:235   */\n      swap2\n      swap1\n      pop\n      jump\t// out\n        /* \"#utility.yul\":241:359   */\n    tag_70:\n        /* \"#utility.yul\":328:352   */\n      tag_106\n        /* \"#utility.yul\":346:351   */\n      dup2\n        /* \"#utility.yul\":328:352   */\n      tag_69\n      jump\t// in\n    tag_106:\n        /* \"#utility.yul\":323:326   */\n      dup3\n        /* \"#utility.yul\":316:353   */\n      mstore\n        /* \"#utility.yul\":241:359   */\n      pop\n      pop\n      jump\t// out\n        /* \"#utility.yul\":365:587   */\n    tag_12:\n        /* \"#utility.yul\":458:462   */\n      0x00\n        /* \"#utility.yul\":496:498   */\n      0x20\n        /* \"#utility.yul\":485:494   */\n      dup3\n        /* \"#utility.yul\":481:499   */\n      add\n        /* \"#utility.yul\":473:499   */\n      swap1\n      pop\n        /* \"#utility.yul\":509:580   */\n      tag_108\n        /* \"#utility.yul\":577:578   */\n      0x00\n        /* \"#utility.yul\":566:575   */\n      dup4\n        /* \"#utility.yul\":562:579   */\n      add\n        /* \"#utility.yul\":553:559   */\n      dup5\n        /* \"#utility.yul\":509:580   */\n      tag_70\n      jump\t// in\n    tag_108:\n        /* \"#utility.yul\":365:587   */\n      swap3\n      swap2\n      pop\n      pop\n      jump\t// out\n        /* \"#utility.yul\":674:791   */\n    tag_72:\n        /* \"#utility.yul\":783:784   */\n      0x00\n        /* \"#utility.yul\":780:781   */\n      dup1\n        /* \"#utility.yul\":773:785   */\n      revert\n        /* \"#utility.yul\":920:1042   */\n    tag_74:\n        /* \"#utility.yul\":993:1017   */\n      tag_113\n        /* \"#utility.yul\":1011:1016   */\n      dup2\n        /* \"#utility.yul\":993:1017   */\n      tag_69\n      jump\t// in\n    tag_113:\n        /* \"#utility.yul\":986:991   */\n      dup2\n        /* \"#utility.yul\":983:1018   */\n      eq\n        /* \"#utility.yul\":973:1036   */\n      tag_114\n      jumpi\n        /* \"#utility.yul\":1032:1033   */\n      0x00\n        /* \"#utility.yul\":1029:1030   */\n      dup1\n        /* \"#utility.yul\":1022:1034   */\n      revert\n        /* \"#utility.yul\":973:1036   */\n    tag_114:\n        /* \"#utility.yul\":920:1042   */\n      pop\n      jump\t// out\n        /* \"#utility.yul\":1048:1187   */\n    tag_75:\n        /* \"#utility.yul\":1094:1099   */\n      0x00\n        /* \"#utility.yul\":1132:1138   */\n      dup2\n        /* \"#utility.yul\":1119:1139   */\n      calldataload\n        /* \"#utility.yul\":1110:1139   */\n      swap1\n      pop\n        /* \"#utility.yul\":1148:1181   */\n      tag_116\n        /* \"#utility.yul\":1175:1180   */\n      dup2\n        /* \"#utility.yul\":1148:1181   */\n      tag_74\n      jump\t// in\n    tag_116:\n        /* \"#utility.yul\":1048:1187   */\n      swap3\n      swap2\n      pop\n      pop\n      jump\t// out\n        /* \"#utility.yul\":1193:1522   */\n    tag_19:\n        /* \"#utility.yul\":1252:1258   */\n      0x00\n        /* \"#utility.yul\":1301:1303   */\n      0x20\n        /* \"#utility.yul\":1289:1298   */\n      dup3\n        /* \"#utility.yul\":1280:1287   */\n      dup5\n        /* \"#utility.yul\":1276:1299   */\n      sub\n        /* \"#utility.yul\":1272:1304   */\n      slt\n        /* \"#utility.yul\":1269:1388   */\n      iszero\n      tag_118\n      jumpi\n        /* \"#utility.yul\":1307:1386   */\n      tag_119\n      tag_72\n      jump\t// in\n    tag_119:\n        /* \"#utility.yul\":1269:1388   */\n    tag_118:\n        /* \"#utility.yul\":1427:1428   */\n      0x00\n        /* \"#utility.yul\":1452:1505   */\n      tag_120\n        /* \"#utility.yul\":1497:1504   */\n      dup5\n        /* \"#utility.yul\":1488:1494   */\n      dup3\n        /* \"#utility.yul\":1477:1486   */\n      dup6\n        /* \"#utility.yul\":1473:1495   */\n      add\n        /* \"#utility.yul\":1452:1505   */\n      tag_75\n      jump\t// in\n    tag_120:\n        /* \"#utility.yul\":1442:1505   */\n      swap2\n      pop\n        /* \"#utility.yul\":1398:1515   */\n      pop\n        /* \"#utility.yul\":1193:1522   */\n      swap3\n      swap2\n      pop\n      pop\n      jump\t// out\n        /* \"#utility.yul\":1528:1605   */\n    tag_76:\n        /* \"#utility.yul\":1565:1572   */\n      0x00\n        /* \"#utility.yul\":1594:1599   */\n      dup2\n        /* \"#utility.yul\":1583:1599   */\n      swap1\n      pop\n        /* \"#utility.yul\":1528:1605   */\n      swap2\n      swap1\n      pop\n      jump\t// out\n        /* \"#utility.yul\":1611:1729   */\n    tag_77:\n        /* \"#utility.yul\":1698:1722   */\n      tag_123\n        /* \"#utility.yul\":1716:1721   */\n      dup2\n        /* \"#utility.yul\":1698:1722   */\n      tag_76\n      jump\t// in\n    tag_123:\n        /* \"#utility.yul\":1693:1696   */\n      dup3\n        /* \"#utility.yul\":1686:1723   */\n      mstore\n        /* \"#utility.yul\":1611:1729   */\n      pop\n      pop\n      jump\t// out\n        /* \"#utility.yul\":1735:1957   */\n    tag_22:\n        /* \"#utility.yul\":1828:1832   */\n      0x00\n        /* \"#utility.yul\":1866:1868   */\n      0x20\n        /* \"#utility.yul\":1855:1864   */\n      dup3\n        /* \"#utility.yul\":1851:1869   */\n      add\n        /* \"#utility.yul\":1843:1869   */\n      swap1\n      pop\n        /* \"#utility.yul\":1879:1950   */\n      tag_125\n        /* \"#utility.yul\":1947:1948   */\n      0x00\n        /* \"#utility.yul\":1936:1945   */\n      dup4\n        /* \"#utility.yul\":1932:1949   */\n      add\n        /* \"#utility.yul\":1923:1929   */\n      dup5\n        /* \"#utility.yul\":1879:1950   */\n      tag_77\n      jump\t// in\n    tag_125:\n        /* \"#utility.yul\":1735:1957   */\n      swap3\n      swap2\n      pop\n      pop\n      jump\t// out\n        /* \"#utility.yul\":1963:2039   */\n    tag_78:\n        /* \"#utility.yul\":1999:2006   */\n      0x00\n        /* \"#utility.yul\":2028:2033   */\n      dup2\n        /* \"#utility.yul\":2017:2033   */\n      swap1\n      pop\n        /* \"#utility.yul\":1963:2039   */\n      swap2\n      swap1\n      pop\n      jump\t// out\n        /* \"#utility.yul\":2045:2160   */\n    tag_79:\n        /* \"#utility.yul\":2130:2153   */\n      tag_128\n        /* \"#utility.yul\":2147:2152   */\n      dup2\n        /* \"#utility.yul\":2130:2153   */\n      tag_78\n      jump\t// in\n    tag_128:\n        /* \"#utility.yul\":2125:2128   */\n      dup3\n        /* \"#utility.yul\":2118:2154   */\n      mstore\n        /* \"#utility.yul\":2045:2160   */\n      pop\n      pop\n      jump\t// out\n        /* \"#utility.yul\":2166:2384   */\n    tag_29:\n        /* \"#utility.yul\":2257:2261   */\n      0x00\n        /* \"#utility.yul\":2295:2297   */\n      0x20\n        /* \"#utility.yul\":2284:2293   */\n      dup3\n        /* \"#utility.yul\":2280:2298   */\n      add\n        /* \"#utility.yul\":2272:2298   */\n      swap1\n      pop\n        /* \"#utility.yul\":2308:2377   */\n      tag_130\n        /* \"#utility.yul\":2374:2375   */\n      0x00\n        /* \"#utility.yul\":2363:2372   */\n      dup4\n        /* \"#utility.yul\":2359:2376   */\n      add\n        /* \"#utility.yul\":2350:2356   */\n      dup5\n        /* \"#utility.yul\":2308:2377   */\n      tag_79\n      jump\t// in\n    tag_130:\n        /* \"#utility.yul\":2166:2384   */\n      swap3\n      swap2\n      pop\n      pop\n      jump\t// out\n        /* \"#utility.yul\":2390:2559   */\n    tag_80:\n        /* \"#utility.yul\":2474:2485   */\n      0x00\n        /* \"#utility.yul\":2508:2514   */\n      dup3\n        /* \"#utility.yul\":2503:2506   */\n      dup3\n        /* \"#utility.yul\":2496:2515   */\n      mstore\n        /* \"#utility.yul\":2548:2552   */\n      0x20\n        /* \"#utility.yul\":2543:2546   */\n      dup3\n        /* \"#utility.yul\":2539:2553   */\n      add\n        /* \"#utility.yul\":2524:2553   */\n      swap1\n      pop\n        /* \"#utility.yul\":2390:2559   */\n      swap3\n      swap2\n      pop\n      pop\n      jump\t// out\n        /* \"#utility.yul\":2565:2736   */\n    tag_81:\n        /* \"#utility.yul\":2705:2728   */\n      0x546172676574206973206e6f7420726561636865640000000000000000000000\n        /* \"#utility.yul\":2701:2702   */\n      0x00\n        /* \"#utility.yul\":2693:2699   */\n      dup3\n        /* \"#utility.yul\":2689:2703   */\n      add\n        /* \"#utility.yul\":2682:2729   */\n      mstore\n        /* \"#utility.yul\":2565:2736   */\n      pop\n      jump\t// out\n        /* \"#utility.yul\":2742:3108   */\n    tag_82:\n        /* \"#utility.yul\":2884:2887   */\n      0x00\n        /* \"#utility.yul\":2905:2972   */\n      tag_134\n        /* \"#utility.yul\":2969:2971   */\n      0x15\n        /* \"#utility.yul\":2964:2967   */\n      dup4\n        /* \"#utility.yul\":2905:2972   */\n      tag_80\n      jump\t// in\n    tag_134:\n        /* \"#utility.yul\":2898:2972   */\n      swap2\n      pop\n        /* \"#utility.yul\":2981:3074   */\n      tag_135\n        /* \"#utility.yul\":3070:3073   */\n      dup3\n        /* \"#utility.yul\":2981:3074   */\n      tag_81\n      jump\t// in\n    tag_135:\n        /* \"#utility.yul\":3099:3101   */\n      0x20\n        /* \"#utility.yul\":3094:3097   */\n      dup3\n        /* \"#utility.yul\":3090:3102   */\n      add\n        /* \"#utility.yul\":3083:3102   */\n      swap1\n      pop\n        /* \"#utility.yul\":2742:3108   */\n      swap2\n      swap1\n      pop\n      jump\t// out\n        /* \"#utility.yul\":3114:3533   */\n    tag_39:\n        /* \"#utility.yul\":3280:3284   */\n      0x00\n        /* \"#utility.yul\":3318:3320   */\n      0x20\n        /* \"#utility.yul\":3307:3316   */\n      dup3\n        /* \"#utility.yul\":3303:3321   */\n      add\n        /* \"#utility.yul\":3295:3321   */\n      swap1\n      pop\n        /* \"#utility.yul\":3367:3376   */\n      dup2\n        /* \"#utility.yul\":3361:3365   */\n      dup2\n        /* \"#utility.yul\":3357:3377   */\n      sub\n        /* \"#utility.yul\":3353:3354   */\n      0x00\n        /* \"#utility.yul\":3342:3351   */\n      dup4\n        /* \"#utility.yul\":3338:3355   */\n      add\n        /* \"#utility.yul\":3331:3378   */\n      mstore\n        /* \"#utility.yul\":3395:3526   */\n      tag_137\n        /* \"#utility.yul\":3521:3525   */\n      dup2\n        /* \"#utility.yul\":3395:3526   */\n      tag_82\n      jump\t// in\n    tag_137:\n        /* \"#utility.yul\":3387:3526   */\n      swap1\n      pop\n        /* \"#utility.yul\":3114:3533   */\n      swap2\n      swap1\n      pop\n      jump\t// out\n        /* \"#utility.yul\":3539:3686   */\n    tag_83:\n        /* \"#utility.yul\":3640:3651   */\n      0x00\n        /* \"#utility.yul\":3677:3680   */\n      dup2\n        /* \"#utility.yul\":3662:3680   */\n      swap1\n      pop\n        /* \"#utility.yul\":3539:3686   */\n      swap3\n      swap2\n      pop\n      pop\n      jump\t// out\n        /* \"#utility.yul\":3692:3806   */\n    tag_84:\n      pop\n      jump\t// out\n        /* \"#utility.yul\":3812:4210   */\n    tag_85:\n        /* \"#utility.yul\":3971:3974   */\n      0x00\n        /* \"#utility.yul\":3992:4075   */\n      tag_141\n        /* \"#utility.yul\":4073:4074   */\n      0x00\n        /* \"#utility.yul\":4068:4071   */\n      dup4\n        /* \"#utility.yul\":3992:4075   */\n      tag_83\n      jump\t// in\n    tag_141:\n        /* \"#utility.yul\":3985:4075   */\n      swap2\n      pop\n        /* \"#utility.yul\":4084:4177   */\n      tag_142\n        /* \"#utility.yul\":4173:4176   */\n      dup3\n        /* \"#utility.yul\":4084:4177   */\n      tag_84\n      jump\t// in\n    tag_142:\n        /* \"#utility.yul\":4202:4203   */\n      0x00\n        /* \"#utility.yul\":4197:4200   */\n      dup3\n        /* \"#utility.yul\":4193:4204   */\n      add\n        /* \"#utility.yul\":4186:4204   */\n      swap1\n      pop\n        /* \"#utility.yul\":3812:4210   */\n      swap2\n      swap1\n      pop\n      jump\t// out\n        /* \"#utility.yul\":4216:4595   */\n    tag_41:\n        /* \"#utility.yul\":4400:4403   */\n      0x00\n        /* \"#utility.yul\":4422:4569   */\n      tag_144\n        /* \"#utility.yul\":4565:4568   */\n      dup3\n        /* \"#utility.yul\":4422:4569   */\n      tag_85\n      jump\t// in\n    tag_144:\n        /* \"#utility.yul\":4415:4569   */\n      swap2\n      pop\n        /* \"#utility.yul\":4586:4589   */\n      dup2\n        /* \"#utility.yul\":4579:4589   */\n      swap1\n      pop\n        /* \"#utility.yul\":4216:4595   */\n      swap2\n      swap1\n      pop\n      jump\t// out\n        /* \"#utility.yul\":4601:4769   */\n    tag_86:\n        /* \"#utility.yul\":4741:4761   */\n      0x7472616e73666572207478206661696c65640000000000000000000000000000\n        /* \"#utility.yul\":4737:4738   */\n      0x00\n        /* \"#utility.yul\":4729:4735   */\n      dup3\n        /* \"#utility.yul\":4725:4739   */\n      add\n        /* \"#utility.yul\":4718:4762   */\n      mstore\n        /* \"#utility.yul\":4601:4769   */\n      pop\n      jump\t// out\n        /* \"#utility.yul\":4775:5141   */\n    tag_87:\n        /* \"#utility.yul\":4917:4920   */\n      0x00\n        /* \"#utility.yul\":4938:5005   */\n      tag_147\n        /* \"#utility.yul\":5002:5004   */\n      0x12\n        /* \"#utility.yul\":4997:5000   */\n      dup4\n        /* \"#utility.yul\":4938:5005   */\n      tag_80\n      jump\t// in\n    tag_147:\n        /* \"#utility.yul\":4931:5005   */\n      swap2\n      pop\n        /* \"#utility.yul\":5014:5107   */\n      tag_148\n        /* \"#utility.yul\":5103:5106   */\n      dup3\n        /* \"#utility.yul\":5014:5107   */\n      tag_86\n      jump\t// in\n    tag_148:\n        /* \"#utility.yul\":5132:5134   */\n      0x20\n        /* \"#utility.yul\":5127:5130   */\n      dup3\n        /* \"#utility.yul\":5123:5135   */\n      add\n        /* \"#utility.yul\":5116:5135   */\n      swap1\n      pop\n        /* \"#utility.yul\":4775:5141   */\n      swap2\n      swap1\n      pop\n      jump\t// out\n        /* \"#utility.yul\":5147:5566   */\n    tag_47:\n        /* \"#utility.yul\":5313:5317   */\n      0x00\n        /* \"#utility.yul\":5351:5353   */\n      0x20\n        /* \"#utility.yul\":5340:5349   */\n      dup3\n        /* \"#utility.yul\":5336:5354   */\n      add\n        /* \"#utility.yul\":5328:5354   */\n      swap1\n      pop\n        /* \"#utility.yul\":5400:5409   */\n      dup2\n        /* \"#utility.yul\":5394:5398   */\n      dup2\n        /* \"#utility.yul\":5390:5410   */\n      sub\n        /* \"#utility.yul\":5386:5387   */\n      0x00\n        /* \"#utility.yul\":5375:5384   */\n      dup4\n        /* \"#utility.yul\":5371:5388   */\n      add\n        /* \"#utility.yul\":5364:5411   */\n      mstore\n        /* \"#utility.yul\":5428:5559   */\n      tag_150\n        /* \"#utility.yul\":5554:5558   */\n      dup2\n        /* \"#utility.yul\":5428:5559   */\n      tag_87\n      jump\t// in\n    tag_150:\n        /* \"#utility.yul\":5420:5559   */\n      swap1\n      pop\n        /* \"#utility.yul\":5147:5566   */\n      swap2\n      swap1\n      pop\n      jump\t// out\n        /* \"#utility.yul\":5572:5735   */\n    tag_88:\n        /* \"#utility.yul\":5712:5727   */\n      0x53656e64206d6f72652045544800000000000000000000000000000000000000\n        /* \"#utility.yul\":5708:5709   */\n      0x00\n        /* \"#utility.yul\":5700:5706   */\n      dup3\n        /* \"#utility.yul\":5696:5710   */\n      add\n        /* \"#utility.yul\":5689:5728   */\n      mstore\n        /* \"#utility.yul\":5572:5735   */\n      pop\n      jump\t// out\n        /* \"#utility.yul\":5741:6107   */\n    tag_89:\n        /* \"#utility.yul\":5883:5886   */\n      0x00\n        /* \"#utility.yul\":5904:5971   */\n      tag_153\n        /* \"#utility.yul\":5968:5970   */\n      0x0d\n        /* \"#utility.yul\":5963:5966   */\n      dup4\n        /* \"#utility.yul\":5904:5971   */\n      tag_80\n      jump\t// in\n    tag_153:\n        /* \"#utility.yul\":5897:5971   */\n      swap2\n      pop\n        /* \"#utility.yul\":5980:6073   */\n      tag_154\n        /* \"#utility.yul\":6069:6072   */\n      dup3\n        /* \"#utility.yul\":5980:6073   */\n      tag_88\n      jump\t// in\n    tag_154:\n        /* \"#utility.yul\":6098:6100   */\n      0x20\n        /* \"#utility.yul\":6093:6096   */\n      dup3\n        /* \"#utility.yul\":6089:6101   */\n      add\n        /* \"#utility.yul\":6082:6101   */\n      swap1\n      pop\n        /* \"#utility.yul\":5741:6107   */\n      swap2\n      swap1\n      pop\n      jump\t// out\n        /* \"#utility.yul\":6113:6532   */\n    tag_52:\n        /* \"#utility.yul\":6279:6283   */\n      0x00\n        /* \"#utility.yul\":6317:6319   */\n      0x20\n        /* \"#utility.yul\":6306:6315   */\n      dup3\n        /* \"#utility.yul\":6302:6320   */\n      add\n        /* \"#utility.yul\":6294:6320   */\n      swap1\n      pop\n        /* \"#utility.yul\":6366:6375   */\n      dup2\n        /* \"#utility.yul\":6360:6364   */\n      dup2\n        /* \"#utility.yul\":6356:6376   */\n      sub\n        /* \"#utility.yul\":6352:6353   */\n      0x00\n        /* \"#utility.yul\":6341:6350   */\n      dup4\n        /* \"#utility.yul\":6337:6354   */\n      add\n        /* \"#utility.yul\":6330:6377   */\n      mstore\n        /* \"#utility.yul\":6394:6525   */\n      tag_156\n        /* \"#utility.yul\":6520:6524   */\n      dup2\n        /* \"#utility.yul\":6394:6525   */\n      tag_89\n      jump\t// in\n    tag_156:\n        /* \"#utility.yul\":6386:6525   */\n      swap1\n      pop\n        /* \"#utility.yul\":6113:6532   */\n      swap2\n      swap1\n      pop\n      jump\t// out\n        /* \"#utility.yul\":6538:6643   */\n    tag_90:\n        /* \"#utility.yul\":6574:6581   */\n      0x00\n        /* \"#utility.yul\":6614:6636   */\n      0xffffffffffffffffffff\n        /* \"#utility.yul\":6607:6612   */\n      dup3\n        /* \"#utility.yul\":6603:6637   */\n      and\n        /* \"#utility.yul\":6592:6637   */\n      swap1\n      pop\n        /* \"#utility.yul\":6538:6643   */\n      swap2\n      swap1\n      pop\n      jump\t// out\n        /* \"#utility.yul\":6649:6769   */\n    tag_91:\n        /* \"#utility.yul\":6721:6744   */\n      tag_159\n        /* \"#utility.yul\":6738:6743   */\n      dup2\n        /* \"#utility.yul\":6721:6744   */\n      tag_90\n      jump\t// in\n    tag_159:\n        /* \"#utility.yul\":6714:6719   */\n      dup2\n        /* \"#utility.yul\":6711:6745   */\n      eq\n        /* \"#utility.yul\":6701:6763   */\n      tag_160\n      jumpi\n        /* \"#utility.yul\":6759:6760   */\n      0x00\n        /* \"#utility.yul\":6756:6757   */\n      dup1\n        /* \"#utility.yul\":6749:6761   */\n      revert\n        /* \"#utility.yul\":6701:6763   */\n    tag_160:\n        /* \"#utility.yul\":6649:6769   */\n      pop\n      jump\t// out\n        /* \"#utility.yul\":6775:6916   */\n    tag_92:\n        /* \"#utility.yul\":6831:6836   */\n      0x00\n        /* \"#utility.yul\":6862:6868   */\n      dup2\n        /* \"#utility.yul\":6856:6869   */\n      mload\n        /* \"#utility.yul\":6847:6869   */\n      swap1\n      pop\n        /* \"#utility.yul\":6878:6910   */\n      tag_162\n        /* \"#utility.yul\":6904:6909   */\n      dup2\n        /* \"#utility.yul\":6878:6910   */\n      tag_91\n      jump\t// in\n    tag_162:\n        /* \"#utility.yul\":6775:6916   */\n      swap3\n      swap2\n      pop\n      pop\n      jump\t// out\n        /* \"#utility.yul\":6922:7042   */\n    tag_93:\n        /* \"#utility.yul\":6994:7017   */\n      tag_164\n        /* \"#utility.yul\":7011:7016   */\n      dup2\n        /* \"#utility.yul\":6994:7017   */\n      tag_78\n      jump\t// in\n    tag_164:\n        /* \"#utility.yul\":6987:6992   */\n      dup2\n        /* \"#utility.yul\":6984:7018   */\n      eq\n        /* \"#utility.yul\":6974:7036   */\n      tag_165\n      jumpi\n        /* \"#utility.yul\":7032:7033   */\n      0x00\n        /* \"#utility.yul\":7029:7030   */\n      dup1\n        /* \"#utility.yul\":7022:7034   */\n      revert\n        /* \"#utility.yul\":6974:7036   */\n    tag_165:\n        /* \"#utility.yul\":6922:7042   */\n      pop\n      jump\t// out\n        /* \"#utility.yul\":7048:7189   */\n    tag_94:\n        /* \"#utility.yul\":7104:7109   */\n      0x00\n        /* \"#utility.yul\":7135:7141   */\n      dup2\n        /* \"#utility.yul\":7129:7142   */\n      mload\n        /* \"#utility.yul\":7120:7142   */\n      swap1\n      pop\n        /* \"#utility.yul\":7151:7183   */\n      tag_167\n        /* \"#utility.yul\":7177:7182   */\n      dup2\n        /* \"#utility.yul\":7151:7183   */\n      tag_93\n      jump\t// in\n    tag_167:\n        /* \"#utility.yul\":7048:7189   */\n      swap3\n      swap2\n      pop\n      pop\n      jump\t// out\n        /* \"#utility.yul\":7195:7317   */\n    tag_95:\n        /* \"#utility.yul\":7268:7292   */\n      tag_169\n        /* \"#utility.yul\":7286:7291   */\n      dup2\n        /* \"#utility.yul\":7268:7292   */\n      tag_76\n      jump\t// in\n    tag_169:\n        /* \"#utility.yul\":7261:7266   */\n      dup2\n        /* \"#utility.yul\":7258:7293   */\n      eq\n        /* \"#utility.yul\":7248:7311   */\n      tag_170\n      jumpi\n        /* \"#utility.yul\":7307:7308   */\n      0x00\n        /* \"#utility.yul\":7304:7305   */\n      dup1\n        /* \"#utility.yul\":7297:7309   */\n      revert\n        /* \"#utility.yul\":7248:7311   */\n    tag_170:\n        /* \"#utility.yul\":7195:7317   */\n      pop\n      jump\t// out\n        /* \"#utility.yul\":7323:7466   */\n    tag_96:\n        /* \"#utility.yul\":7380:7385   */\n      0x00\n        /* \"#utility.yul\":7411:7417   */\n      dup2\n        /* \"#utility.yul\":7405:7418   */\n      mload\n        /* \"#utility.yul\":7396:7418   */\n      swap1\n      pop\n        /* \"#utility.yul\":7427:7460   */\n      tag_172\n        /* \"#utility.yul\":7454:7459   */\n      dup2\n        /* \"#utility.yul\":7427:7460   */\n      tag_95\n      jump\t// in\n    tag_172:\n        /* \"#utility.yul\":7323:7466   */\n      swap3\n      swap2\n      pop\n      pop\n      jump\t// out\n        /* \"#utility.yul\":7472:8443   */\n    tag_57:\n        /* \"#utility.yul\":7575:7581   */\n      0x00\n        /* \"#utility.yul\":7583:7589   */\n      dup1\n        /* \"#utility.yul\":7591:7597   */\n      0x00\n        /* \"#utility.yul\":7599:7605   */\n      dup1\n        /* \"#utility.yul\":7607:7613   */\n      0x00\n        /* \"#utility.yul\":7656:7659   */\n      0xa0\n        /* \"#utility.yul\":7644:7653   */\n      dup7\n        /* \"#utility.yul\":7635:7642   */\n      dup9\n        /* \"#utility.yul\":7631:7654   */\n      sub\n        /* \"#utility.yul\":7627:7660   */\n      slt\n        /* \"#utility.yul\":7624:7744   */\n      iszero\n      tag_174\n      jumpi\n        /* \"#utility.yul\":7663:7742   */\n      tag_175\n      tag_72\n      jump\t// in\n    tag_175:\n        /* \"#utility.yul\":7624:7744   */\n    tag_174:\n        /* \"#utility.yul\":7783:7784   */\n      0x00\n        /* \"#utility.yul\":7808:7871   */\n      tag_176\n        /* \"#utility.yul\":7863:7870   */\n      dup9\n        /* \"#utility.yul\":7854:7860   */\n      dup3\n        /* \"#utility.yul\":7843:7852   */\n      dup10\n        /* \"#utility.yul\":7839:7861   */\n      add\n        /* \"#utility.yul\":7808:7871   */\n      tag_92\n      jump\t// in\n    tag_176:\n        /* \"#utility.yul\":7798:7871   */\n      swap6\n      pop\n        /* \"#utility.yul\":7754:7881   */\n      pop\n        /* \"#utility.yul\":7920:7922   */\n      0x20\n        /* \"#utility.yul\":7946:8009   */\n      tag_177\n        /* \"#utility.yul\":8001:8008   */\n      dup9\n        /* \"#utility.yul\":7992:7998   */\n      dup3\n        /* \"#utility.yul\":7981:7990   */\n      dup10\n        /* \"#utility.yul\":7977:7999   */\n      add\n        /* \"#utility.yul\":7946:8009   */\n      tag_94\n      jump\t// in\n    tag_177:\n        /* \"#utility.yul\":7936:8009   */\n      swap5\n      pop\n        /* \"#utility.yul\":7891:8019   */\n      pop\n        /* \"#utility.yul\":8058:8060   */\n      0x40\n        /* \"#utility.yul\":8084:8148   */\n      tag_178\n        /* \"#utility.yul\":8140:8147   */\n      dup9\n        /* \"#utility.yul\":8131:8137   */\n      dup3\n        /* \"#utility.yul\":8120:8129   */\n      dup10\n        /* \"#utility.yul\":8116:8138   */\n      add\n        /* \"#utility.yul\":8084:8148   */\n      tag_96\n      jump\t// in\n    tag_178:\n        /* \"#utility.yul\":8074:8148   */\n      swap4\n      pop\n        /* \"#utility.yul\":8029:8158   */\n      pop\n        /* \"#utility.yul\":8197:8199   */\n      0x60\n        /* \"#utility.yul\":8223:8287   */\n      tag_179\n        /* \"#utility.yul\":8279:8286   */\n      dup9\n        /* \"#utility.yul\":8270:8276   */\n      dup3\n        /* \"#utility.yul\":8259:8268   */\n      dup10\n        /* \"#utility.yul\":8255:8277   */\n      add\n        /* \"#utility.yul\":8223:8287   */\n      tag_96\n      jump\t// in\n    tag_179:\n        /* \"#utility.yul\":8213:8287   */\n      swap3\n      pop\n        /* \"#utility.yul\":8168:8297   */\n      pop\n        /* \"#utility.yul\":8336:8339   */\n      0x80\n        /* \"#utility.yul\":8363:8426   */\n      tag_180\n        /* \"#utility.yul\":8418:8425   */\n      dup9\n        /* \"#utility.yul\":8409:8415   */\n      dup3\n        /* \"#utility.yul\":8398:8407   */\n      dup10\n        /* \"#utility.yul\":8394:8416   */\n      add\n        /* \"#utility.yul\":8363:8426   */\n      tag_92\n      jump\t// in\n    tag_180:\n        /* \"#utility.yul\":8353:8426   */\n      swap2\n      pop\n        /* \"#utility.yul\":8307:8436   */\n      pop\n        /* \"#utility.yul\":7472:8443   */\n      swap3\n      swap6\n      pop\n      swap3\n      swap6\n      swap1\n      swap4\n      pop\n      jump\t// out\n        /* \"#utility.yul\":8449:8683   */\n    tag_97:\n        /* \"#utility.yul\":8589:8623   */\n      0x796f7520646f206e6f742068617665207065726d697373696f6e20746f206361\n        /* \"#utility.yul\":8585:8586   */\n      0x00\n        /* \"#utility.yul\":8577:8583   */\n      dup3\n        /* \"#utility.yul\":8573:8587   */\n      add\n        /* \"#utility.yul\":8566:8624   */\n      mstore\n        /* \"#utility.yul\":8658:8675   */\n      0x6c6c20746869732066756e74696f6e0000000000000000000000000000000000\n        /* \"#utility.yul\":8653:8655   */\n      0x20\n        /* \"#utility.yul\":8645:8651   */\n      dup3\n        /* \"#utility.yul\":8641:8656   */\n      add\n        /* \"#utility.yul\":8634:8676   */\n      mstore\n        /* \"#utility.yul\":8449:8683   */\n      pop\n      jump\t// out\n        /* \"#utility.yul\":8689:9055   */\n    tag_98:\n        /* \"#utility.yul\":8831:8834   */\n      0x00\n        /* \"#utility.yul\":8852:8919   */\n      tag_183\n        /* \"#utility.yul\":8916:8918   */\n      0x2f\n        /* \"#utility.yul\":8911:8914   */\n      dup4\n        /* \"#utility.yul\":8852:8919   */\n      tag_80\n      jump\t// in\n    tag_183:\n        /* \"#utility.yul\":8845:8919   */\n      swap2\n      pop\n        /* \"#utility.yul\":8928:9021   */\n      tag_184\n        /* \"#utility.yul\":9017:9020   */\n      dup3\n        /* \"#utility.yul\":8928:9021   */\n      tag_97\n      jump\t// in\n    tag_184:\n        /* \"#utility.yul\":9046:9048   */\n      0x40\n        /* \"#utility.yul\":9041:9044   */\n      dup3\n        /* \"#utility.yul\":9037:9049   */\n      add\n        /* \"#utility.yul\":9030:9049   */\n      swap1\n      pop\n        /* \"#utility.yul\":8689:9055   */\n      swap2\n      swap1\n      pop\n      jump\t// out\n        /* \"#utility.yul\":9061:9480   */\n    tag_61:\n        /* \"#utility.yul\":9227:9231   */\n      0x00\n        /* \"#utility.yul\":9265:9267   */\n      0x20\n        /* \"#utility.yul\":9254:9263   */\n      dup3\n        /* \"#utility.yul\":9250:9268   */\n      add\n        /* \"#utility.yul\":9242:9268   */\n      swap1\n      pop\n        /* \"#utility.yul\":9314:9323   */\n      dup2\n        /* \"#utility.yul\":9308:9312   */\n      dup2\n        /* \"#utility.yul\":9304:9324   */\n      sub\n        /* \"#utility.yul\":9300:9301   */\n      0x00\n        /* \"#utility.yul\":9289:9298   */\n      dup4\n        /* \"#utility.yul\":9285:9302   */\n      add\n        /* \"#utility.yul\":9278:9325   */\n      mstore\n        /* \"#utility.yul\":9342:9473   */\n      tag_186\n        /* \"#utility.yul\":9468:9472   */\n      dup2\n        /* \"#utility.yul\":9342:9473   */\n      tag_98\n      jump\t// in\n    tag_186:\n        /* \"#utility.yul\":9334:9473   */\n      swap1\n      pop\n        /* \"#utility.yul\":9061:9480   */\n      swap2\n      swap1\n      pop\n      jump\t// out\n        /* \"#utility.yul\":9486:9666   */\n    tag_99:\n        /* \"#utility.yul\":9534:9611   */\n      0x4e487b7100000000000000000000000000000000000000000000000000000000\n        /* \"#utility.yul\":9531:9532   */\n      0x00\n        /* \"#utility.yul\":9524:9612   */\n      mstore\n        /* \"#utility.yul\":9631:9635   */\n      0x11\n        /* \"#utility.yul\":9628:9629   */\n      0x04\n        /* \"#utility.yul\":9621:9636   */\n      mstore\n        /* \"#utility.yul\":9655:9659   */\n      0x24\n        /* \"#utility.yul\":9652:9653   */\n      0x00\n        /* \"#utility.yul\":9645:9660   */\n      revert\n        /* \"#utility.yul\":9672:10082   */\n    tag_65:\n        /* \"#utility.yul\":9712:9719   */\n      0x00\n        /* \"#utility.yul\":9735:9755   */\n      tag_189\n        /* \"#utility.yul\":9753:9754   */\n      dup3\n        /* \"#utility.yul\":9735:9755   */\n      tag_76\n      jump\t// in\n    tag_189:\n        /* \"#utility.yul\":9730:9755   */\n      swap2\n      pop\n        /* \"#utility.yul\":9769:9789   */\n      tag_190\n        /* \"#utility.yul\":9787:9788   */\n      dup4\n        /* \"#utility.yul\":9769:9789   */\n      tag_76\n      jump\t// in\n    tag_190:\n        /* \"#utility.yul\":9764:9789   */\n      swap3\n      pop\n        /* \"#utility.yul\":9824:9825   */\n      dup3\n        /* \"#utility.yul\":9821:9822   */\n      dup3\n        /* \"#utility.yul\":9817:9826   */\n      mul\n        /* \"#utility.yul\":9846:9876   */\n      tag_191\n        /* \"#utility.yul\":9864:9875   */\n      dup2\n        /* \"#utility.yul\":9846:9876   */\n      tag_76\n      jump\t// in\n    tag_191:\n        /* \"#utility.yul\":9835:9876   */\n      swap2\n      pop\n        /* \"#utility.yul\":10025:10026   */\n      dup3\n        /* \"#utility.yul\":10016:10023   */\n      dup3\n        /* \"#utility.yul\":10012:10027   */\n      div\n        /* \"#utility.yul\":10009:10010   */\n      dup5\n        /* \"#utility.yul\":10006:10028   */\n      eq\n        /* \"#utility.yul\":9986:9987   */\n      dup4\n        /* \"#utility.yul\":9979:9988   */\n      iszero\n        /* \"#utility.yul\":9959:10042   */\n      or\n        /* \"#utility.yul\":9936:10075   */\n      tag_192\n      jumpi\n        /* \"#utility.yul\":10055:10073   */\n      tag_193\n      tag_99\n      jump\t// in\n    tag_193:\n        /* \"#utility.yul\":9936:10075   */\n    tag_192:\n        /* \"#utility.yul\":9720:10082   */\n      pop\n        /* \"#utility.yul\":9672:10082   */\n      swap3\n      swap2\n      pop\n      pop\n      jump\t// out\n        /* \"#utility.yul\":10088:10268   */\n    tag_100:\n        /* \"#utility.yul\":10136:10213   */\n      0x4e487b7100000000000000000000000000000000000000000000000000000000\n        /* \"#utility.yul\":10133:10134   */\n      0x00\n        /* \"#utility.yul\":10126:10214   */\n      mstore\n        /* \"#utility.yul\":10233:10237   */\n      0x12\n        /* \"#utility.yul\":10230:10231   */\n      0x04\n        /* \"#utility.yul\":10223:10238   */\n      mstore\n        /* \"#utility.yul\":10257:10261   */\n      0x24\n        /* \"#utility.yul\":10254:10255   */\n      0x00\n        /* \"#utility.yul\":10247:10262   */\n      revert\n        /* \"#utility.yul\":10274:10459   */\n    tag_67:\n        /* \"#utility.yul\":10314:10315   */\n      0x00\n        /* \"#utility.yul\":10331:10351   */\n      tag_196\n        /* \"#utility.yul\":10349:10350   */\n      dup3\n        /* \"#utility.yul\":10331:10351   */\n      tag_76\n      jump\t// in\n    tag_196:\n        /* \"#utility.yul\":10326:10351   */\n      swap2\n      pop\n        /* \"#utility.yul\":10365:10385   */\n      tag_197\n        /* \"#utility.yul\":10383:10384   */\n      dup4\n        /* \"#utility.yul\":10365:10385   */\n      tag_76\n      jump\t// in\n    tag_197:\n        /* \"#utility.yul\":10360:10385   */\n      swap3\n      pop\n        /* \"#utility.yul\":10404:10405   */\n      dup3\n        /* \"#utility.yul\":10394:10429   */\n      tag_198\n      jumpi\n        /* \"#utility.yul\":10409:10427   */\n      tag_199\n      tag_100\n      jump\t// in\n    tag_199:\n        /* \"#utility.yul\":10394:10429   */\n    tag_198:\n        /* \"#utility.yul\":10451:10452   */\n      dup3\n        /* \"#utility.yul\":10448:10449   */\n      dup3\n        /* \"#utility.yul\":10444:10453   */\n      div\n        /* \"#utility.yul\":10439:10453   */\n      swap1\n      pop\n        /* \"#utility.yul\":10274:10459   */\n      swap3\n      swap2\n      pop\n      pop\n      jump\t// out\n\n    auxdata: 0xa264697066735822122070ff855cfcd03c09977ef8b11b67e2d56ab841584abd3eb84d2c1f5fc9d84e5e64736f6c634300081a0033\n}\n",
				"bytecode": {
					"linkReferences": {},
					"object": "6080604052348015600e575f80fd5b5073694aa1769357215de4fac081bf1f309adc32530660015f6101000a81548173ffffffffffffffffffffffffffffffffffffffff021916908373ffffffffffffffffffffffffffffffffffffffff1602179055503360025f6101000a81548173ffffffffffffffffffffffffffffffffffffffff021916908373ffffffffffffffffffffffffffffffffffffffff1602179055506109d3806100b05f395ff3fe608060405260043610610054575f3560e01c80638da5cb5b146100585780638edd6eb6146100825780639f883a0514610098578063b60d4288146100d4578063bea4dfb5146100de578063f2fde38b14610108575b5f80fd5b348015610063575f80fd5b5061006c610130565b60405161007991906104dd565b60405180910390f35b34801561008d575f80fd5b50610096610155565b005b3480156100a3575f80fd5b506100be60048036038101906100b99190610524565b610256565b6040516100cb9190610567565b60405180910390f35b6100dc61026a565b005b3480156100e9575f80fd5b506100f2610300565b6040516100ff9190610598565b60405180910390f35b348015610113575f80fd5b5061012e60048036038101906101299190610524565b61039d565b005b60025f9054906101000a900473ffffffffffffffffffffffffffffffffffffffff1681565b68056bc75e2d631000006101684761046f565b10156101a9576040517f08c379a00000000000000000000000000000000000000000000000000000000081526004016101a09061060b565b60405180910390fd5b5f3373ffffffffffffffffffffffffffffffffffffffff16476040516101ce90610656565b5f6040518083038185875af1925050503d805f8114610208576040519150601f19603f3d011682016040523d82523d5f602084013e61020d565b606091505b50508091505080610253576040517f08c379a000000000000000000000000000000000000000000000000000000000815260040161024a906106b4565b60405180910390fd5b50565b5f602052805f5260405f205f915090505481565b678ac7230489e8000061027c3461046f565b10156102bd576040517f08c379a00000000000000000000000000000000000000000000000000000000081526004016102b49061071c565b60405180910390fd5b345f803373ffffffffffffffffffffffffffffffffffffffff1673ffffffffffffffffffffffffffffffffffffffff1681526020019081526020015f2081905550565b5f8060015f9054906101000a900473ffffffffffffffffffffffffffffffffffffffff1673ffffffffffffffffffffffffffffffffffffffff1663feaf968c6040518163ffffffff1660e01b815260040160a060405180830381865afa15801561036c573d5f803e3d5ffd5b505050506040513d601f19601f8201168201806040525081019061039091906107cd565b5050509150508091505090565b60025f9054906101000a900473ffffffffffffffffffffffffffffffffffffffff1673ffffffffffffffffffffffffffffffffffffffff163373ffffffffffffffffffffffffffffffffffffffff161461042c576040517f08c379a0000000000000000000000000000000000000000000000000000000008152600401610423906108b4565b60405180910390fd5b8060025f6101000a81548173ffffffffffffffffffffffffffffffffffffffff021916908373ffffffffffffffffffffffffffffffffffffffff16021790555050565b5f80610479610300565b90506305f5e100818461048c91906108ff565b610496919061096d565b915050919050565b5f73ffffffffffffffffffffffffffffffffffffffff82169050919050565b5f6104c78261049e565b9050919050565b6104d7816104bd565b82525050565b5f6020820190506104f05f8301846104ce565b92915050565b5f80fd5b610503816104bd565b811461050d575f80fd5b50565b5f8135905061051e816104fa565b92915050565b5f60208284031215610539576105386104f6565b5b5f61054684828501610510565b91505092915050565b5f819050919050565b6105618161054f565b82525050565b5f60208201905061057a5f830184610558565b92915050565b5f819050919050565b61059281610580565b82525050565b5f6020820190506105ab5f830184610589565b92915050565b5f82825260208201905092915050565b7f546172676574206973206e6f74207265616368656400000000000000000000005f82015250565b5f6105f56015836105b1565b9150610600826105c1565b602082019050919050565b5f6020820190508181035f830152610622816105e9565b9050919050565b5f81905092915050565b50565b5f6106415f83610629565b915061064c82610633565b5f82019050919050565b5f61066082610636565b9150819050919050565b7f7472616e73666572207478206661696c656400000000000000000000000000005f82015250565b5f61069e6012836105b1565b91506106a98261066a565b602082019050919050565b5f6020820190508181035f8301526106cb81610692565b9050919050565b7f53656e64206d6f726520455448000000000000000000000000000000000000005f82015250565b5f610706600d836105b1565b9150610711826106d2565b602082019050919050565b5f6020820190508181035f830152610733816106fa565b9050919050565b5f69ffffffffffffffffffff82169050919050565b6107588161073a565b8114610762575f80fd5b50565b5f815190506107738161074f565b92915050565b61078281610580565b811461078c575f80fd5b50565b5f8151905061079d81610779565b92915050565b6107ac8161054f565b81146107b6575f80fd5b50565b5f815190506107c7816107a3565b92915050565b5f805f805f60a086880312156107e6576107e56104f6565b5b5f6107f388828901610765565b95505060206108048882890161078f565b9450506040610815888289016107b9565b9350506060610826888289016107b9565b925050608061083788828901610765565b9150509295509295909350565b7f796f7520646f206e6f742068617665207065726d697373696f6e20746f2063615f8201527f6c6c20746869732066756e74696f6e0000000000000000000000000000000000602082015250565b5f61089e602f836105b1565b91506108a982610844565b604082019050919050565b5f6020820190508181035f8301526108cb81610892565b9050919050565b7f4e487b71000000000000000000000000000000000000000000000000000000005f52601160045260245ffd5b5f6109098261054f565b91506109148361054f565b92508282026109228161054f565b91508282048414831517610939576109386108d2565b5b5092915050565b7f4e487b71000000000000000000000000000000000000000000000000000000005f52601260045260245ffd5b5f6109778261054f565b91506109828361054f565b92508261099257610991610940565b5b82820490509291505056fea264697066735822122070ff855cfcd03c09977ef8b11b67e2d56ab841584abd3eb84d2c1f5fc9d84e5e64736f6c634300081a0033",
					"opcodes": "PUSH1 0x80 PUSH1 0x40 MSTORE CALLVALUE DUP1 ISZERO PUSH1 0xE JUMPI PUSH0 DUP1 REVERT JUMPDEST POP PUSH20 0x694AA1769357215DE4FAC081BF1F309ADC325306 PUSH1 0x1 PUSH0 PUSH2 0x100 EXP DUP2 SLOAD DUP2 PUSH20 0xFFFFFFFFFFFFFFFFFFFFFFFFFFFFFFFFFFFFFFFF MUL NOT AND SWAP1 DUP4 PUSH20 0xFFFFFFFFFFFFFFFFFFFFFFFFFFFFFFFFFFFFFFFF AND MUL OR SWAP1 SSTORE POP CALLER PUSH1 0x2 PUSH0 PUSH2 0x100 EXP DUP2 SLOAD DUP2 PUSH20 0xFFFFFFFFFFFFFFFFFFFFFFFFFFFFFFFFFFFFFFFF MUL NOT AND SWAP1 DUP4 PUSH20 0xFFFFFFFFFFFFFFFFFFFFFFFFFFFFFFFFFFFFFFFF AND MUL OR SWAP1 SSTORE POP PUSH2 0x9D3 DUP1 PUSH2 0xB0 PUSH0 CODECOPY PUSH0 RETURN INVALID PUSH1 0x80 PUSH1 0x40 MSTORE PUSH1 0x4 CALLDATASIZE LT PUSH2 0x54 JUMPI PUSH0 CALLDATALOAD PUSH1 0xE0 SHR DUP1 PUSH4 0x8DA5CB5B EQ PUSH2 0x58 JUMPI DUP1 PUSH4 0x8EDD6EB6 EQ PUSH2 0x82 JUMPI DUP1 PUSH4 0x9F883A05 EQ PUSH2 0x98 JUMPI DUP1 PUSH4 0xB60D4288 EQ PUSH2 0xD4 JUMPI DUP1 PUSH4 0xBEA4DFB5 EQ PUSH2 0xDE JUMPI DUP1 PUSH4 0xF2FDE38B EQ PUSH2 0x108 JUMPI JUMPDEST PUSH0 DUP1 REVERT JUMPDEST CALLVALUE DUP1 ISZERO PUSH2 0x63 JUMPI PUSH0 DUP1 REVERT JUMPDEST POP PUSH2 0x6C PUSH2 0x130 JUMP JUMPDEST PUSH1 0x40 MLOAD PUSH2 0x79 SWAP2 SWAP1 PUSH2 0x4DD JUMP JUMPDEST PUSH1 0x40 MLOAD DUP1 SWAP2 SUB SWAP1 RETURN JUMPDEST CALLVALUE DUP1 ISZERO PUSH2 0x8D JUMPI PUSH0 DUP1 REVERT JUMPDEST POP PUSH2 0x96 PUSH2 0x155 JUMP JUMPDEST STOP JUMPDEST CALLVALUE DUP1 ISZERO PUSH2 0xA3 JUMPI PUSH0 DUP1 REVERT JUMPDEST POP PUSH2 0xBE PUSH1 0x4 DUP1 CALLDATASIZE SUB DUP2 ADD SWAP1 PUSH2 0xB9 SWAP2 SWAP1 PUSH2 0x524 JUMP JUMPDEST PUSH2 0x256 JUMP JUMPDEST PUSH1 0x40 MLOAD PUSH2 0xCB SWAP2 SWAP1 PUSH2 0x567 JUMP JUMPDEST PUSH1 0x40 MLOAD DUP1 SWAP2 SUB SWAP1 RETURN JUMPDEST PUSH2 0xDC PUSH2 0x26A JUMP JUMPDEST STOP JUMPDEST CALLVALUE DUP1 ISZERO PUSH2 0xE9 JUMPI PUSH0 DUP1 REVERT JUMPDEST POP PUSH2 0xF2 PUSH2 0x300 JUMP JUMPDEST PUSH1 0x40 MLOAD PUSH2 0xFF SWAP2 SWAP1 PUSH2 0x598 JUMP JUMPDEST PUSH1 0x40 MLOAD DUP1 SWAP2 SUB SWAP1 RETURN JUMPDEST CALLVALUE DUP1 ISZERO PUSH2 0x113 JUMPI PUSH0 DUP1 REVERT JUMPDEST POP PUSH2 0x12E PUSH1 0x4 DUP1 CALLDATASIZE SUB DUP2 ADD SWAP1 PUSH2 0x129 SWAP2 SWAP1 PUSH2 0x524 JUMP JUMPDEST PUSH2 0x39D JUMP JUMPDEST STOP JUMPDEST PUSH1 0x2 PUSH0 SWAP1 SLOAD SWAP1 PUSH2 0x100 EXP SWAP1 DIV PUSH20 0xFFFFFFFFFFFFFFFFFFFFFFFFFFFFFFFFFFFFFFFF AND DUP2 JUMP JUMPDEST PUSH9 0x56BC75E2D63100000 PUSH2 0x168 SELFBALANCE PUSH2 0x46F JUMP JUMPDEST LT ISZERO PUSH2 0x1A9 JUMPI PUSH1 0x40 MLOAD PUSH32 0x8C379A000000000000000000000000000000000000000000000000000000000 DUP2 MSTORE PUSH1 0x4 ADD PUSH2 0x1A0 SWAP1 PUSH2 0x60B JUMP JUMPDEST PUSH1 0x40 MLOAD DUP1 SWAP2 SUB SWAP1 REVERT JUMPDEST PUSH0 CALLER PUSH20 0xFFFFFFFFFFFFFFFFFFFFFFFFFFFFFFFFFFFFFFFF AND SELFBALANCE PUSH1 0x40 MLOAD PUSH2 0x1CE SWAP1 PUSH2 0x656 JUMP JUMPDEST PUSH0 PUSH1 0x40 MLOAD DUP1 DUP4 SUB DUP2 DUP6 DUP8 GAS CALL SWAP3 POP POP POP RETURNDATASIZE DUP1 PUSH0 DUP2 EQ PUSH2 0x208 JUMPI PUSH1 0x40 MLOAD SWAP2 POP PUSH1 0x1F NOT PUSH1 0x3F RETURNDATASIZE ADD AND DUP3 ADD PUSH1 0x40 MSTORE RETURNDATASIZE DUP3 MSTORE RETURNDATASIZE PUSH0 PUSH1 0x20 DUP5 ADD RETURNDATACOPY PUSH2 0x20D JUMP JUMPDEST PUSH1 0x60 SWAP2 POP JUMPDEST POP POP DUP1 SWAP2 POP POP DUP1 PUSH2 0x253 JUMPI PUSH1 0x40 MLOAD PUSH32 0x8C379A000000000000000000000000000000000000000000000000000000000 DUP2 MSTORE PUSH1 0x4 ADD PUSH2 0x24A SWAP1 PUSH2 0x6B4 JUMP JUMPDEST PUSH1 0x40 MLOAD DUP1 SWAP2 SUB SWAP1 REVERT JUMPDEST POP JUMP JUMPDEST PUSH0 PUSH1 0x20 MSTORE DUP1 PUSH0 MSTORE PUSH1 0x40 PUSH0 KECCAK256 PUSH0 SWAP2 POP SWAP1 POP SLOAD DUP2 JUMP JUMPDEST PUSH8 0x8AC7230489E80000 PUSH2 0x27C CALLVALUE PUSH2 0x46F JUMP JUMPDEST LT ISZERO PUSH2 0x2BD JUMPI PUSH1 0x40 MLOAD PUSH32 0x8C379A000000000000000000000000000000000000000000000000000000000 DUP2 MSTORE PUSH1 0x4 ADD PUSH2 0x2B4 SWAP1 PUSH2 0x71C JUMP JUMPDEST PUSH1 0x40 MLOAD DUP1 SWAP2 SUB SWAP1 REVERT JUMPDEST CALLVALUE PUSH0 DUP1 CALLER PUSH20 0xFFFFFFFFFFFFFFFFFFFFFFFFFFFFFFFFFFFFFFFF AND PUSH20 0xFFFFFFFFFFFFFFFFFFFFFFFFFFFFFFFFFFFFFFFF AND DUP2 MSTORE PUSH1 0x20 ADD SWAP1 DUP2 MSTORE PUSH1 0x20 ADD PUSH0 KECCAK256 DUP2 SWAP1 SSTORE POP JUMP JUMPDEST PUSH0 DUP1 PUSH1 0x1 PUSH0 SWAP1 SLOAD SWAP1 PUSH2 0x100 EXP SWAP1 DIV PUSH20 0xFFFFFFFFFFFFFFFFFFFFFFFFFFFFFFFFFFFFFFFF AND PUSH20 0xFFFFFFFFFFFFFFFFFFFFFFFFFFFFFFFFFFFFFFFF AND PUSH4 0xFEAF968C PUSH1 0x40 MLOAD DUP2 PUSH4 0xFFFFFFFF AND PUSH1 0xE0 SHL DUP2 MSTORE PUSH1 0x4 ADD PUSH1 0xA0 PUSH1 0x40 MLOAD DUP1 DUP4 SUB DUP2 DUP7 GAS STATICCALL ISZERO DUP1 ISZERO PUSH2 0x36C JUMPI RETURNDATASIZE PUSH0 DUP1 RETURNDATACOPY RETURNDATASIZE PUSH0 REVERT JUMPDEST POP POP POP POP PUSH1 0x40 MLOAD RETURNDATASIZE PUSH1 0x1F NOT PUSH1 0x1F DUP3 ADD AND DUP3 ADD DUP1 PUSH1 0x40 MSTORE POP DUP2 ADD SWAP1 PUSH2 0x390 SWAP2 SWAP1 PUSH2 0x7CD JUMP JUMPDEST POP POP POP SWAP2 POP POP DUP1 SWAP2 POP POP SWAP1 JUMP JUMPDEST PUSH1 0x2 PUSH0 SWAP1 SLOAD SWAP1 PUSH2 0x100 EXP SWAP1 DIV PUSH20 0xFFFFFFFFFFFFFFFFFFFFFFFFFFFFFFFFFFFFFFFF AND PUSH20 0xFFFFFFFFFFFFFFFFFFFFFFFFFFFFFFFFFFFFFFFF AND CALLER PUSH20 0xFFFFFFFFFFFFFFFFFFFFFFFFFFFFFFFFFFFFFFFF AND EQ PUSH2 0x42C JUMPI PUSH1 0x40 MLOAD PUSH32 0x8C379A000000000000000000000000000000000000000000000000000000000 DUP2 MSTORE PUSH1 0x4 ADD PUSH2 0x423 SWAP1 PUSH2 0x8B4 JUMP JUMPDEST PUSH1 0x40 MLOAD DUP1 SWAP2 SUB SWAP1 REVERT JUMPDEST DUP1 PUSH1 0x2 PUSH0 PUSH2 0x100 EXP DUP2 SLOAD DUP2 PUSH20 0xFFFFFFFFFFFFFFFFFFFFFFFFFFFFFFFFFFFFFFFF MUL NOT AND SWAP1 DUP4 PUSH20 0xFFFFFFFFFFFFFFFFFFFFFFFFFFFFFFFFFFFFFFFF AND MUL OR SWAP1 SSTORE POP POP JUMP JUMPDEST PUSH0 DUP1 PUSH2 0x479 PUSH2 0x300 JUMP JUMPDEST SWAP1 POP PUSH4 0x5F5E100 DUP2 DUP5 PUSH2 0x48C SWAP2 SWAP1 PUSH2 0x8FF JUMP JUMPDEST PUSH2 0x496 SWAP2 SWAP1 PUSH2 0x96D JUMP JUMPDEST SWAP2 POP POP SWAP2 SWAP1 POP JUMP JUMPDEST PUSH0 PUSH20 0xFFFFFFFFFFFFFFFFFFFFFFFFFFFFFFFFFFFFFFFF DUP3 AND SWAP1 POP SWAP2 SWAP1 POP JUMP JUMPDEST PUSH0 PUSH2 0x4C7 DUP3 PUSH2 0x49E JUMP JUMPDEST SWAP1 POP SWAP2 SWAP1 POP JUMP JUMPDEST PUSH2 0x4D7 DUP2 PUSH2 0x4BD JUMP JUMPDEST DUP3 MSTORE POP POP JUMP JUMPDEST PUSH0 PUSH1 0x20 DUP3 ADD SWAP1 POP PUSH2 0x4F0 PUSH0 DUP4 ADD DUP5 PUSH2 0x4CE JUMP JUMPDEST SWAP3 SWAP2 POP POP JUMP JUMPDEST PUSH0 DUP1 REVERT JUMPDEST PUSH2 0x503 DUP2 PUSH2 0x4BD JUMP JUMPDEST DUP2 EQ PUSH2 0x50D JUMPI PUSH0 DUP1 REVERT JUMPDEST POP JUMP JUMPDEST PUSH0 DUP2 CALLDATALOAD SWAP1 POP PUSH2 0x51E DUP2 PUSH2 0x4FA JUMP JUMPDEST SWAP3 SWAP2 POP POP JUMP JUMPDEST PUSH0 PUSH1 0x20 DUP3 DUP5 SUB SLT ISZERO PUSH2 0x539 JUMPI PUSH2 0x538 PUSH2 0x4F6 JUMP JUMPDEST JUMPDEST PUSH0 PUSH2 0x546 DUP5 DUP3 DUP6 ADD PUSH2 0x510 JUMP JUMPDEST SWAP2 POP POP SWAP3 SWAP2 POP POP JUMP JUMPDEST PUSH0 DUP2 SWAP1 POP SWAP2 SWAP1 POP JUMP JUMPDEST PUSH2 0x561 DUP2 PUSH2 0x54F JUMP JUMPDEST DUP3 MSTORE POP POP JUMP JUMPDEST PUSH0 PUSH1 0x20 DUP3 ADD SWAP1 POP PUSH2 0x57A PUSH0 DUP4 ADD DUP5 PUSH2 0x558 JUMP JUMPDEST SWAP3 SWAP2 POP POP JUMP JUMPDEST PUSH0 DUP2 SWAP1 POP SWAP2 SWAP1 POP JUMP JUMPDEST PUSH2 0x592 DUP2 PUSH2 0x580 JUMP JUMPDEST DUP3 MSTORE POP POP JUMP JUMPDEST PUSH0 PUSH1 0x20 DUP3 ADD SWAP1 POP PUSH2 0x5AB PUSH0 DUP4 ADD DUP5 PUSH2 0x589 JUMP JUMPDEST SWAP3 SWAP2 POP POP JUMP JUMPDEST PUSH0 DUP3 DUP3 MSTORE PUSH1 0x20 DUP3 ADD SWAP1 POP SWAP3 SWAP2 POP POP JUMP JUMPDEST PUSH32 0x546172676574206973206E6F7420726561636865640000000000000000000000 PUSH0 DUP3 ADD MSTORE POP JUMP JUMPDEST PUSH0 PUSH2 0x5F5 PUSH1 0x15 DUP4 PUSH2 0x5B1 JUMP JUMPDEST SWAP2 POP PUSH2 0x600 DUP3 PUSH2 0x5C1 JUMP JUMPDEST PUSH1 0x20 DUP3 ADD SWAP1 POP SWAP2 SWAP1 POP JUMP JUMPDEST PUSH0 PUSH1 0x20 DUP3 ADD SWAP1 POP DUP2 DUP2 SUB PUSH0 DUP4 ADD MSTORE PUSH2 0x622 DUP2 PUSH2 0x5E9 JUMP JUMPDEST SWAP1 POP SWAP2 SWAP1 POP JUMP JUMPDEST PUSH0 DUP2 SWAP1 POP SWAP3 SWAP2 POP POP JUMP JUMPDEST POP JUMP JUMPDEST PUSH0 PUSH2 0x641 PUSH0 DUP4 PUSH2 0x629 JUMP JUMPDEST SWAP2 POP PUSH2 0x64C DUP3 PUSH2 0x633 JUMP JUMPDEST PUSH0 DUP3 ADD SWAP1 POP SWAP2 SWAP1 POP JUMP JUMPDEST PUSH0 PUSH2 0x660 DUP3 PUSH2 0x636 JUMP JUMPDEST SWAP2 POP DUP2 SWAP1 POP SWAP2 SWAP1 POP JUMP JUMPDEST PUSH32 0x7472616E73666572207478206661696C65640000000000000000000000000000 PUSH0 DUP3 ADD MSTORE POP JUMP JUMPDEST PUSH0 PUSH2 0x69E PUSH1 0x12 DUP4 PUSH2 0x5B1 JUMP JUMPDEST SWAP2 POP PUSH2 0x6A9 DUP3 PUSH2 0x66A JUMP JUMPDEST PUSH1 0x20 DUP3 ADD SWAP1 POP SWAP2 SWAP1 POP JUMP JUMPDEST PUSH0 PUSH1 0x20 DUP3 ADD SWAP1 POP DUP2 DUP2 SUB PUSH0 DUP4 ADD MSTORE PUSH2 0x6CB DUP2 PUSH2 0x692 JUMP JUMPDEST SWAP1 POP SWAP2 SWAP1 POP JUMP JUMPDEST PUSH32 0x53656E64206D6F72652045544800000000000000000000000000000000000000 PUSH0 DUP3 ADD MSTORE POP JUMP JUMPDEST PUSH0 PUSH2 0x706 PUSH1 0xD DUP4 PUSH2 0x5B1 JUMP JUMPDEST SWAP2 POP PUSH2 0x711 DUP3 PUSH2 0x6D2 JUMP JUMPDEST PUSH1 0x20 DUP3 ADD SWAP1 POP SWAP2 SWAP1 POP JUMP JUMPDEST PUSH0 PUSH1 0x20 DUP3 ADD SWAP1 POP DUP2 DUP2 SUB PUSH0 DUP4 ADD MSTORE PUSH2 0x733 DUP2 PUSH2 0x6FA JUMP JUMPDEST SWAP1 POP SWAP2 SWAP1 POP JUMP JUMPDEST PUSH0 PUSH10 0xFFFFFFFFFFFFFFFFFFFF DUP3 AND SWAP1 POP SWAP2 SWAP1 POP JUMP JUMPDEST PUSH2 0x758 DUP2 PUSH2 0x73A JUMP JUMPDEST DUP2 EQ PUSH2 0x762 JUMPI PUSH0 DUP1 REVERT JUMPDEST POP JUMP JUMPDEST PUSH0 DUP2 MLOAD SWAP1 POP PUSH2 0x773 DUP2 PUSH2 0x74F JUMP JUMPDEST SWAP3 SWAP2 POP POP JUMP JUMPDEST PUSH2 0x782 DUP2 PUSH2 0x580 JUMP JUMPDEST DUP2 EQ PUSH2 0x78C JUMPI PUSH0 DUP1 REVERT JUMPDEST POP JUMP JUMPDEST PUSH0 DUP2 MLOAD SWAP1 POP PUSH2 0x79D DUP2 PUSH2 0x779 JUMP JUMPDEST SWAP3 SWAP2 POP POP JUMP JUMPDEST PUSH2 0x7AC DUP2 PUSH2 0x54F JUMP JUMPDEST DUP2 EQ PUSH2 0x7B6 JUMPI PUSH0 DUP1 REVERT JUMPDEST POP JUMP JUMPDEST PUSH0 DUP2 MLOAD SWAP1 POP PUSH2 0x7C7 DUP2 PUSH2 0x7A3 JUMP JUMPDEST SWAP3 SWAP2 POP POP JUMP JUMPDEST PUSH0 DUP1 PUSH0 DUP1 PUSH0 PUSH1 0xA0 DUP7 DUP9 SUB SLT ISZERO PUSH2 0x7E6 JUMPI PUSH2 0x7E5 PUSH2 0x4F6 JUMP JUMPDEST JUMPDEST PUSH0 PUSH2 0x7F3 DUP9 DUP3 DUP10 ADD PUSH2 0x765 JUMP JUMPDEST SWAP6 POP POP PUSH1 0x20 PUSH2 0x804 DUP9 DUP3 DUP10 ADD PUSH2 0x78F JUMP JUMPDEST SWAP5 POP POP PUSH1 0x40 PUSH2 0x815 DUP9 DUP3 DUP10 ADD PUSH2 0x7B9 JUMP JUMPDEST SWAP4 POP POP PUSH1 0x60 PUSH2 0x826 DUP9 DUP3 DUP10 ADD PUSH2 0x7B9 JUMP JUMPDEST SWAP3 POP POP PUSH1 0x80 PUSH2 0x837 DUP9 DUP3 DUP10 ADD PUSH2 0x765 JUMP JUMPDEST SWAP2 POP POP SWAP3 SWAP6 POP SWAP3 SWAP6 SWAP1 SWAP4 POP JUMP JUMPDEST PUSH32 0x796F7520646F206E6F742068617665207065726D697373696F6E20746F206361 PUSH0 DUP3 ADD MSTORE PUSH32 0x6C6C20746869732066756E74696F6E0000000000000000000000000000000000 PUSH1 0x20 DUP3 ADD MSTORE POP JUMP JUMPDEST PUSH0 PUSH2 0x89E PUSH1 0x2F DUP4 PUSH2 0x5B1 JUMP JUMPDEST SWAP2 POP PUSH2 0x8A9 DUP3 PUSH2 0x844 JUMP JUMPDEST PUSH1 0x40 DUP3 ADD SWAP1 POP SWAP2 SWAP1 POP JUMP JUMPDEST PUSH0 PUSH1 0x20 DUP3 ADD SWAP1 POP DUP2 DUP2 SUB PUSH0 DUP4 ADD MSTORE PUSH2 0x8CB DUP2 PUSH2 0x892 JUMP JUMPDEST SWAP1 POP SWAP2 SWAP1 POP JUMP JUMPDEST PUSH32 0x4E487B7100000000000000000000000000000000000000000000000000000000 PUSH0 MSTORE PUSH1 0x11 PUSH1 0x4 MSTORE PUSH1 0x24 PUSH0 REVERT JUMPDEST PUSH0 PUSH2 0x909 DUP3 PUSH2 0x54F JUMP JUMPDEST SWAP2 POP PUSH2 0x914 DUP4 PUSH2 0x54F JUMP JUMPDEST SWAP3 POP DUP3 DUP3 MUL PUSH2 0x922 DUP2 PUSH2 0x54F JUMP JUMPDEST SWAP2 POP DUP3 DUP3 DIV DUP5 EQ DUP4 ISZERO OR PUSH2 0x939 JUMPI PUSH2 0x938 PUSH2 0x8D2 JUMP JUMPDEST JUMPDEST POP SWAP3 SWAP2 POP POP JUMP JUMPDEST PUSH32 0x4E487B7100000000000000000000000000000000000000000000000000000000 PUSH0 MSTORE PUSH1 0x12 PUSH1 0x4 MSTORE PUSH1 0x24 PUSH0 REVERT JUMPDEST PUSH0 PUSH2 0x977 DUP3 PUSH2 0x54F JUMP JUMPDEST SWAP2 POP PUSH2 0x982 DUP4 PUSH2 0x54F JUMP JUMPDEST SWAP3 POP DUP3 PUSH2 0x992 JUMPI PUSH2 0x991 PUSH2 0x940 JUMP JUMPDEST JUMPDEST DUP3 DUP3 DIV SWAP1 POP SWAP3 SWAP2 POP POP JUMP INVALID LOG2 PUSH5 0x6970667358 0x22 SLT KECCAK256 PUSH17 0xFF855CFCD03C09977EF8B11B67E2D56AB8 COINBASE PC BLOBBASEFEE 0xBD RETURNDATACOPY 0xB8 0x4D 0x2C 0x1F PUSH0 0xC9 0xD8 0x4E MCOPY PUSH5 0x736F6C6343 STOP ADDMOD BYTE STOP CALLER "
				},
				"gasEstimates": {
					"creation": {
						"codeDepositCost": "503000",
						"executionCost": "49066",
						"totalCost": "552066"
					},
					"external": {
						"fund()": "infinite",
						"fundersToAmount(address)": "2823",
						"getChainlinkDataFeedLatestAnswer()": "infinite",
						"getFund()": "infinite",
						"owner()": "2486",
						"transferOwnership(address)": "26972"
					},
					"internal": {
						"convertEthToUsd(uint256)": "infinite"
					}
				},
				"methodIdentifiers": {
					"fund()": "b60d4288",
					"fundersToAmount(address)": "9f883a05",
					"getChainlinkDataFeedLatestAnswer()": "bea4dfb5",
					"getFund()": "8edd6eb6",
					"owner()": "8da5cb5b",
					"transferOwnership(address)": "f2fde38b"
				}
			},
			"storageLayout": {
				"storage": [
					{
						"astId": 53,
						"contract": "Fund/FundMe.sol:FundMe",
						"label": "fundersToAmount",
						"offset": 0,
						"slot": "0",
						"type": "t_mapping(t_address,t_uint256)"
					},
					{
						"astId": 63,
						"contract": "Fund/FundMe.sol:FundMe",
						"label": "dataFeed",
						"offset": 0,
						"slot": "1",
						"type": "t_contract(AggregatorV3Interface)45"
					},
					{
						"astId": 72,
						"contract": "Fund/FundMe.sol:FundMe",
						"label": "owner",
						"offset": 0,
						"slot": "2",
						"type": "t_address"
					}
				],
				"types": {
					"t_address": {
						"encoding": "inplace",
						"label": "address",
						"numberOfBytes": "20"
					},
					"t_contract(AggregatorV3Interface)45": {
						"encoding": "inplace",
						"label": "contract AggregatorV3Interface",
						"numberOfBytes": "20"
					},
					"t_mapping(t_address,t_uint256)": {
						"encoding": "mapping",
						"key": "t_address",
						"label": "mapping(address => uint256)",
						"numberOfBytes": "32",
						"value": "t_uint256"
					},
					"t_uint256": {
						"encoding": "inplace",
						"label": "uint256",
						"numberOfBytes": "32"
					}
				}
			},
			"userdoc": {
				"kind": "user",
				"methods": {},
				"version": 1
			}
		}
	}
}